:100000000C9446000C945D000C945D000C945D0013
:100010000C945D000C945D000C945D000C945D00EC
:100020000C945D000C945D000C945D000C945D00DC
:100030000C945D000C945D000C945D000C945D00CC
:100040000C945D000C945D000C945D000C945D00BC
:100050000C945D000C945D000C945D000C945D00AC
:100060000C945D000C945D000C945D000C945D009C
:100070000C945D000C945D000C945D000C945D008C
:100080000C945D000C945D000C945D0011241FBE67
:10009000CFEFD0E4DEBFCDBF11E0A0E0B1E0E6E7F6
:1000A000F1E000E00BBF02C007900D92AE30B10747
:1000B000D9F70E9476000C94B9000C940000CF93FD
:1000C000C82F8A3019F48DE00E945F009091C00023
:1000D00095FFFCCFC093C60080E090E0CF910895DB
:1000E000EAE7F0E08081806E808308958FEF84B925
:1000F00015B88AB91BB811B882B98091780090916F
:1001000079000E94700080917800909179008F3F73
:10011000910520F02FEF25B921E02BB9853F9105FE
:1001200018F02FE725B91BB88B3E910518F02FE387
:1001300025B91BB8863E910518F02FE125B91BB8EB
:10014000813E910518F02FE025B91BB88C3D910533
:1001500018F027E025B91BB8823D910518F023E07F
:1001600025B91BB88D3C910570F281E085B91BB8AB
:06017000CACFF894FFCF96
:0E01760000000002000000005F00000000001A
:00000001FF
